{
  "_format": "hh-sol-artifact-1",
  "contractName": "TaskFlowEscrow",
  "sourceName": "contracts/TaskFlowEscrow.sol",
  "abi": [
    {
      "inputs": [],
      "stateMutability": "nonpayable",
      "type": "constructor"
    },
    {
      "anonymous": false,
      "inputs": [
        {
          "indexed": true,
          "internalType": "string",
          "name": "taskId",
          "type": "string"
        },
        {
          "indexed": true,
          "internalType": "address",
          "name": "worker",
          "type": "address"
        }
      ],
      "name": "TaskAccepted",
      "type": "event"
    },
    {
      "anonymous": false,
      "inputs": [
        {
          "indexed": true,
          "internalType": "string",
          "name": "taskId",
          "type": "string"
        },
        {
          "indexed": true,
          "internalType": "address",
          "name": "requester",
          "type": "address"
        },
        {
          "indexed": false,
          "internalType": "uint256",
          "name": "refund",
          "type": "uint256"
        }
      ],
      "name": "TaskCancelled",
      "type": "event"
    },
    {
      "anonymous": false,
      "inputs": [
        {
          "indexed": true,
          "internalType": "string",
          "name": "taskId",
          "type": "string"
        },
        {
          "indexed": true,
          "internalType": "address",
          "name": "worker",
          "type": "address"
        },
        {
          "indexed": false,
          "internalType": "uint256",
          "name": "payout",
          "type": "uint256"
        }
      ],
      "name": "TaskCompleted",
      "type": "event"
    },
    {
      "anonymous": false,
      "inputs": [
        {
          "indexed": true,
          "internalType": "string",
          "name": "taskId",
          "type": "string"
        },
        {
          "indexed": true,
          "internalType": "address",
          "name": "requester",
          "type": "address"
        },
        {
          "indexed": false,
          "internalType": "uint256",
          "name": "reward",
          "type": "uint256"
        }
      ],
      "name": "TaskCreated",
      "type": "event"
    },
    {
      "anonymous": false,
      "inputs": [
        {
          "indexed": true,
          "internalType": "string",
          "name": "taskId",
          "type": "string"
        },
        {
          "indexed": false,
          "internalType": "string",
          "name": "result",
          "type": "string"
        }
      ],
      "name": "TaskSubmitted",
      "type": "event"
    },
    {
      "inputs": [
        {
          "internalType": "string",
          "name": "taskId",
          "type": "string"
        }
      ],
      "name": "acceptTask",
      "outputs": [],
      "stateMutability": "nonpayable",
      "type": "function"
    },
    {
      "inputs": [
        {
          "internalType": "string",
          "name": "taskId",
          "type": "string"
        }
      ],
      "name": "cancelTask",
      "outputs": [],
      "stateMutability": "nonpayable",
      "type": "function"
    },
    {
      "inputs": [
        {
          "internalType": "string",
          "name": "taskId",
          "type": "string"
        }
      ],
      "name": "createTask",
      "outputs": [],
      "stateMutability": "payable",
      "type": "function"
    },
    {
      "inputs": [],
      "name": "getBalance",
      "outputs": [
        {
          "internalType": "uint256",
          "name": "",
          "type": "uint256"
        }
      ],
      "stateMutability": "view",
      "type": "function"
    },
    {
      "inputs": [
        {
          "internalType": "string",
          "name": "taskId",
          "type": "string"
        }
      ],
      "name": "getTask",
      "outputs": [
        {
          "internalType": "address",
          "name": "requester",
          "type": "address"
        },
        {
          "internalType": "address",
          "name": "worker",
          "type": "address"
        },
        {
          "internalType": "uint256",
          "name": "reward",
          "type": "uint256"
        },
        {
          "internalType": "enum TaskFlowEscrow.TaskStatus",
          "name": "status",
          "type": "uint8"
        },
        {
          "internalType": "string",
          "name": "result",
          "type": "string"
        }
      ],
      "stateMutability": "view",
      "type": "function"
    },
    {
      "inputs": [],
      "name": "owner",
      "outputs": [
        {
          "internalType": "address",
          "name": "",
          "type": "address"
        }
      ],
      "stateMutability": "view",
      "type": "function"
    },
    {
      "inputs": [
        {
          "internalType": "string",
          "name": "taskId",
          "type": "string"
        }
      ],
      "name": "releasePayout",
      "outputs": [],
      "stateMutability": "nonpayable",
      "type": "function"
    },
    {
      "inputs": [
        {
          "internalType": "string",
          "name": "taskId",
          "type": "string"
        },
        {
          "internalType": "string",
          "name": "result",
          "type": "string"
        }
      ],
      "name": "submitTask",
      "outputs": [],
      "stateMutability": "nonpayable",
      "type": "function"
    },
    {
      "inputs": [
        {
          "internalType": "string",
          "name": "",
          "type": "string"
        }
      ],
      "name": "tasks",
      "outputs": [
        {
          "internalType": "string",
          "name": "taskId",
          "type": "string"
        },
        {
          "internalType": "address",
          "name": "requester",
          "type": "address"
        },
        {
          "internalType": "address",
          "name": "worker",
          "type": "address"
        },
        {
          "internalType": "uint256",
          "name": "reward",
          "type": "uint256"
        },
        {
          "internalType": "enum TaskFlowEscrow.TaskStatus",
          "name": "status",
          "type": "uint8"
        },
        {
          "internalType": "string",
          "name": "result",
          "type": "string"
        }
      ],
      "stateMutability": "view",
      "type": "function"
    },
    {
      "inputs": [
        {
          "internalType": "address",
          "name": "newOwner",
          "type": "address"
        }
      ],
      "name": "transferOwnership",
      "outputs": [],
      "stateMutability": "nonpayable",
      "type": "function"
    }
  ],
  "bytecode": "0x608060405234801561001057600080fd5b50336000806101000a81548173ffffffffffffffffffffffffffffffffffffffff021916908373ffffffffffffffffffffffffffffffffffffffff1602179055506123cb806100606000396000f3fe6080604052600436106100915760003560e01c80634ef9ba3f116100595780634ef9ba3f1461017057806358709cf2146101995780638da5cb5b146101db578063a059805f14610206578063f2fde38b1461022f57610091565b8063090d837514610096578063111002aa146100bf57806312065fe0146100db57806316b49b9e146101065780634240803d1461012f575b600080fd5b3480156100a257600080fd5b506100bd60048036038101906100b89190611414565b610258565b005b6100d960048036038101906100d49190611414565b61040b565b005b3480156100e757600080fd5b506100f06106f5565b6040516100fd919061147a565b60405180910390f35b34801561011257600080fd5b5061012d60048036038101906101289190611414565b6106fd565b005b34801561013b57600080fd5b5061015660048036038101906101519190611414565b6109cb565b6040516101679594939291906115dd565b60405180910390f35b34801561017c57600080fd5b5061019760048036038101906101929190611637565b610afd565b005b3480156101a557600080fd5b506101c060048036038101906101bb91906117e8565b610d0b565b6040516101d296959493929190611831565b60405180910390f35b3480156101e757600080fd5b506101f0610eba565b6040516101fd91906118a0565b60405180910390f35b34801561021257600080fd5b5061022d60048036038101906102289190611414565b610ede565b005b34801561023b57600080fd5b50610256600480360381019061025191906118e7565b61125b565b005b60006001838360405161026c929190611944565b9081526020016040518091039020905060008160030154116102c3576040517f08c379a00000000000000000000000000000000000000000000000000000000081526004016102ba906119a9565b60405180910390fd5b600060048111156102d7576102d66114d6565b5b8160040160009054906101000a900460ff1660048111156102fb576102fa6114d6565b5b1461033b576040517f08c379a000000000000000000000000000000000000000000000000000000000815260040161033290611a15565b60405180910390fd5b338160020160006101000a81548173ffffffffffffffffffffffffffffffffffffffff021916908373ffffffffffffffffffffffffffffffffffffffff16021790555060018160040160006101000a81548160ff021916908360048111156103a6576103a56114d6565b5b02179055503373ffffffffffffffffffffffffffffffffffffffff1683836040516103d2929190611944565b60405180910390207f6d7d8f2b121d5dfcf0b3a48db7ab8367141616b4f91daf5dfe3ca1384ca219bb60405160405180910390a3505050565b6000341161044e576040517f08c379a000000000000000000000000000000000000000000000000000000000815260040161044590611a81565b60405180910390fd5b600060018383604051610462929190611944565b908152602001604051809103902060030154146104b4576040517f08c379a00000000000000000000000000000000000000000000000000000000081526004016104ab90611aed565b60405180910390fd5b6040518060c0016040528083838080601f016020809104026020016040519081016040528093929190818152602001838380828437600081840152601f19601f8201169050808301925050505050505081526020013373ffffffffffffffffffffffffffffffffffffffff168152602001600073ffffffffffffffffffffffffffffffffffffffff1681526020013481526020016000600481111561055c5761055b6114d6565b5b81526020016040518060200160405280600081525081525060018383604051610586929190611944565b908152602001604051809103902060008201518160000190816105a99190611d19565b5060208201518160010160006101000a81548173ffffffffffffffffffffffffffffffffffffffff021916908373ffffffffffffffffffffffffffffffffffffffff16021790555060408201518160020160006101000a81548173ffffffffffffffffffffffffffffffffffffffff021916908373ffffffffffffffffffffffffffffffffffffffff1602179055506060820151816003015560808201518160040160006101000a81548160ff0219169083600481111561066d5761066c6114d6565b5b021790555060a08201518160050190816106879190611d19565b509050503373ffffffffffffffffffffffffffffffffffffffff1682826040516106b2929190611944565b60405180910390207f5bebc56a5428fd7b8cf43ed525f03223f8363907fbe44665b7a3426d1de96800346040516106e9919061147a565b60405180910390a35050565b600047905090565b600060018383604051610711929190611944565b908152602001604051809103902090506000816003015411610768576040517f08c379a000000000000000000000000000000000000000000000000000000000815260040161075f906119a9565b60405180910390fd5b3373ffffffffffffffffffffffffffffffffffffffff168160010160009054906101000a900473ffffffffffffffffffffffffffffffffffffffff1673ffffffffffffffffffffffffffffffffffffffff16146107fa576040517f08c379a00000000000000000000000000000000000000000000000000000000081526004016107f190611e37565b60405180910390fd5b6000600481111561080e5761080d6114d6565b5b8160040160009054906101000a900460ff166004811115610832576108316114d6565b5b14610872576040517f08c379a000000000000000000000000000000000000000000000000000000000815260040161086990611ea3565b60405180910390fd5b60008160030154905060048260040160006101000a81548160ff021916908360048111156108a3576108a26114d6565b5b02179055506000826003018190555060003373ffffffffffffffffffffffffffffffffffffffff16826040516108d890611ef4565b60006040518083038185875af1925050503d8060008114610915576040519150601f19603f3d011682016040523d82523d6000602084013e61091a565b606091505b505090508061095e576040517f08c379a000000000000000000000000000000000000000000000000000000000815260040161095590611f55565b60405180910390fd5b3373ffffffffffffffffffffffffffffffffffffffff168585604051610985929190611944565b60405180910390207f702de50c37c37c6819d8a3799614616e3708039100c7b7a9d609a272716099a6846040516109bc919061147a565b60405180910390a35050505050565b60008060008060606000600188886040516109e7929190611944565b908152602001604051809103902090508060010160009054906101000a900473ffffffffffffffffffffffffffffffffffffffff168160020160009054906101000a900473ffffffffffffffffffffffffffffffffffffffff1682600301548360040160009054906101000a900460ff1684600501808054610a6890611b3c565b80601f0160208091040260200160405190810160405280929190818152602001828054610a9490611b3c565b8015610ae15780601f10610ab657610100808354040283529160200191610ae1565b820191906000526020600020905b815481529060010190602001808311610ac457829003601f168201915b5050505050905095509550955095509550509295509295909350565b600060018585604051610b11929190611944565b908152602001604051809103902090506000816003015411610b68576040517f08c379a0000000000000000000000000000000000000000000000000000000008152600401610b5f906119a9565b60405180910390fd5b60016004811115610b7c57610b7b6114d6565b5b8160040160009054906101000a900460ff166004811115610ba057610b9f6114d6565b5b14610be0576040517f08c379a0000000000000000000000000000000000000000000000000000000008152600401610bd790611fc1565b60405180910390fd5b3373ffffffffffffffffffffffffffffffffffffffff168160020160009054906101000a900473ffffffffffffffffffffffffffffffffffffffff1673ffffffffffffffffffffffffffffffffffffffff1614610c72576040517f08c379a0000000000000000000000000000000000000000000000000000000008152600401610c699061202d565b60405180910390fd5b8282826005019182610c85929190612058565b5060028160040160006101000a81548160ff02191690836004811115610cae57610cad6114d6565b5b02179055508484604051610cc3929190611944565b60405180910390207f957a5590ac0887653e52aedcc58f3b73267b84e7444548ae637cc3cff88497728484604051610cfc929190612155565b60405180910390a25050505050565b600181805160208101820180518482526020830160208501208183528095505050505050600091509050806000018054610d4490611b3c565b80601f0160208091040260200160405190810160405280929190818152602001828054610d7090611b3c565b8015610dbd5780601f10610d9257610100808354040283529160200191610dbd565b820191906000526020600020905b815481529060010190602001808311610da057829003601f168201915b5050505050908060010160009054906101000a900473ffffffffffffffffffffffffffffffffffffffff16908060020160009054906101000a900473ffffffffffffffffffffffffffffffffffffffff16908060030154908060040160009054906101000a900460ff1690806005018054610e3790611b3c565b80601f0160208091040260200160405190810160405280929190818152602001828054610e6390611b3c565b8015610eb05780601f10610e8557610100808354040283529160200191610eb0565b820191906000526020600020905b815481529060010190602001808311610e9357829003601f168201915b5050505050905086565b60008054906101000a900473ffffffffffffffffffffffffffffffffffffffff1681565b60008054906101000a900473ffffffffffffffffffffffffffffffffffffffff1673ffffffffffffffffffffffffffffffffffffffff163373ffffffffffffffffffffffffffffffffffffffff1614610f6c576040517f08c379a0000000000000000000000000000000000000000000000000000000008152600401610f63906121c5565b60405180910390fd5b600060018383604051610f80929190611944565b908152602001604051809103902090506000816003015411610fd7576040517f08c379a0000000000000000000000000000000000000000000000000000000008152600401610fce906119a9565b60405180910390fd5b60026004811115610feb57610fea6114d6565b5b8160040160009054906101000a900460ff16600481111561100f5761100e6114d6565b5b1461104f576040517f08c379a000000000000000000000000000000000000000000000000000000000815260040161104690612231565b60405180910390fd5b600073ffffffffffffffffffffffffffffffffffffffff168160020160009054906101000a900473ffffffffffffffffffffffffffffffffffffffff1673ffffffffffffffffffffffffffffffffffffffff16036110e2576040517f08c379a00000000000000000000000000000000000000000000000000000000081526004016110d99061229d565b60405180910390fd5b60008160030154905060008260020160009054906101000a900473ffffffffffffffffffffffffffffffffffffffff16905060038360040160006101000a81548160ff0219169083600481111561113c5761113b6114d6565b5b021790555060008173ffffffffffffffffffffffffffffffffffffffff168360405161116790611ef4565b60006040518083038185875af1925050503d80600081146111a4576040519150601f19603f3d011682016040523d82523d6000602084013e6111a9565b606091505b50509050806111ed576040517f08c379a00000000000000000000000000000000000000000000000000000000081526004016111e490612309565b60405180910390fd5b8173ffffffffffffffffffffffffffffffffffffffff168686604051611214929190611944565b60405180910390207fd99e4f7c2850a2297e866f15d7c0c1472295805facea6031f5099d9ef221c2a28560405161124b919061147a565b60405180910390a3505050505050565b60008054906101000a900473ffffffffffffffffffffffffffffffffffffffff1673ffffffffffffffffffffffffffffffffffffffff163373ffffffffffffffffffffffffffffffffffffffff16146112e9576040517f08c379a00000000000000000000000000000000000000000000000000000000081526004016112e0906121c5565b60405180910390fd5b600073ffffffffffffffffffffffffffffffffffffffff168173ffffffffffffffffffffffffffffffffffffffff1603611358576040517f08c379a000000000000000000000000000000000000000000000000000000000815260040161134f90612375565b60405180910390fd5b806000806101000a81548173ffffffffffffffffffffffffffffffffffffffff021916908373ffffffffffffffffffffffffffffffffffffffff16021790555050565b6000604051905090565b600080fd5b600080fd5b600080fd5b600080fd5b600080fd5b60008083601f8401126113d4576113d36113af565b5b8235905067ffffffffffffffff8111156113f1576113f06113b4565b5b60208301915083600182028301111561140d5761140c6113b9565b5b9250929050565b6000806020838503121561142b5761142a6113a5565b5b600083013567ffffffffffffffff811115611449576114486113aa565b5b611455858286016113be565b92509250509250929050565b6000819050919050565b61147481611461565b82525050565b600060208201905061148f600083018461146b565b92915050565b600073ffffffffffffffffffffffffffffffffffffffff82169050919050565b60006114c082611495565b9050919050565b6114d0816114b5565b82525050565b7f4e487b7100000000000000000000000000000000000000000000000000000000600052602160045260246000fd5b60058110611516576115156114d6565b5b50565b600081905061152782611505565b919050565b600061153782611519565b9050919050565b6115478161152c565b82525050565b600081519050919050565b600082825260208201905092915050565b60005b8381101561158757808201518184015260208101905061156c565b60008484015250505050565b6000601f19601f8301169050919050565b60006115af8261154d565b6115b98185611558565b93506115c9818560208601611569565b6115d281611593565b840191505092915050565b600060a0820190506115f260008301886114c7565b6115ff60208301876114c7565b61160c604083018661146b565b611619606083018561153e565b818103608083015261162b81846115a4565b90509695505050505050565b60008060008060408587031215611651576116506113a5565b5b600085013567ffffffffffffffff81111561166f5761166e6113aa565b5b61167b878288016113be565b9450945050602085013567ffffffffffffffff81111561169e5761169d6113aa565b5b6116aa878288016113be565b925092505092959194509250565b600080fd5b7f4e487b7100000000000000000000000000000000000000000000000000000000600052604160045260246000fd5b6116f582611593565b810181811067ffffffffffffffff82111715611714576117136116bd565b5b80604052505050565b600061172761139b565b905061173382826116ec565b919050565b600067ffffffffffffffff821115611753576117526116bd565b5b61175c82611593565b9050602081019050919050565b82818337600083830152505050565b600061178b61178684611738565b61171d565b9050828152602081018484840111156117a7576117a66116b8565b5b6117b2848285611769565b509392505050565b600082601f8301126117cf576117ce6113af565b5b81356117df848260208601611778565b91505092915050565b6000602082840312156117fe576117fd6113a5565b5b600082013567ffffffffffffffff81111561181c5761181b6113aa565b5b611828848285016117ba565b91505092915050565b600060c082019050818103600083015261184b81896115a4565b905061185a60208301886114c7565b61186760408301876114c7565b611874606083018661146b565b611881608083018561153e565b81810360a083015261189381846115a4565b9050979650505050505050565b60006020820190506118b560008301846114c7565b92915050565b6118c4816114b5565b81146118cf57600080fd5b50565b6000813590506118e1816118bb565b92915050565b6000602082840312156118fd576118fc6113a5565b5b600061190b848285016118d2565b91505092915050565b600081905092915050565b600061192b8385611914565b9350611938838584611769565b82840190509392505050565b600061195182848661191f565b91508190509392505050565b7f5461736b20646f6573206e6f7420657869737400000000000000000000000000600082015250565b6000611993601383611558565b915061199e8261195d565b602082019050919050565b600060208201905081810360008301526119c281611986565b9050919050565b7f5461736b206e6f74206f70656e00000000000000000000000000000000000000600082015250565b60006119ff600d83611558565b9150611a0a826119c9565b602082019050919050565b60006020820190508181036000830152611a2e816119f2565b9050919050565b7f4d7573742073656e64204d4f4e20617320726577617264000000000000000000600082015250565b6000611a6b601783611558565b9150611a7682611a35565b602082019050919050565b60006020820190508181036000830152611a9a81611a5e565b9050919050565b7f5461736b20616c72656164792065786973747300000000000000000000000000600082015250565b6000611ad7601383611558565b9150611ae282611aa1565b602082019050919050565b60006020820190508181036000830152611b0681611aca565b9050919050565b7f4e487b7100000000000000000000000000000000000000000000000000000000600052602260045260246000fd5b60006002820490506001821680611b5457607f821691505b602082108103611b6757611b66611b0d565b5b50919050565b60008190508160005260206000209050919050565b60006020601f8301049050919050565b600082821b905092915050565b600060088302611bcf7fffffffffffffffffffffffffffffffffffffffffffffffffffffffffffffffff82611b92565b611bd98683611b92565b95508019841693508086168417925050509392505050565b6000819050919050565b6000611c16611c11611c0c84611461565b611bf1565b611461565b9050919050565b6000819050919050565b611c3083611bfb565b611c44611c3c82611c1d565b848454611b9f565b825550505050565b600090565b611c59611c4c565b611c64818484611c27565b505050565b5b81811015611c8857611c7d600082611c51565b600181019050611c6a565b5050565b601f821115611ccd57611c9e81611b6d565b611ca784611b82565b81016020851015611cb6578190505b611cca611cc285611b82565b830182611c69565b50505b505050565b600082821c905092915050565b6000611cf060001984600802611cd2565b1980831691505092915050565b6000611d098383611cdf565b9150826002028217905092915050565b611d228261154d565b67ffffffffffffffff811115611d3b57611d3a6116bd565b5b611d458254611b3c565b611d50828285611c8c565b600060209050601f831160018114611d835760008415611d71578287015190505b611d7b8582611cfd565b865550611de3565b601f198416611d9186611b6d565b60005b82811015611db957848901518255600182019150602085019450602081019050611d94565b86831015611dd65784890151611dd2601f891682611cdf565b8355505b6001600288020188555050505b505050505050565b7f4f6e6c7920726571756573746572000000000000000000000000000000000000600082015250565b6000611e21600e83611558565b9150611e2c82611deb565b602082019050919050565b60006020820190508181036000830152611e5081611e14565b9050919050565b7f43616e206f6e6c792063616e63656c206f70656e207461736b73000000000000600082015250565b6000611e8d601a83611558565b9150611e9882611e57565b602082019050919050565b60006020820190508181036000830152611ebc81611e80565b9050919050565b600081905092915050565b50565b6000611ede600083611ec3565b9150611ee982611ece565b600082019050919050565b6000611eff82611ed1565b9150819050919050565b7f526566756e64206661696c656400000000000000000000000000000000000000600082015250565b6000611f3f600d83611558565b9150611f4a82611f09565b602082019050919050565b60006020820190508181036000830152611f6e81611f32565b9050919050565b7f5461736b206e6f74206163636570746564000000000000000000000000000000600082015250565b6000611fab601183611558565b9150611fb682611f75565b602082019050919050565b60006020820190508181036000830152611fda81611f9e565b9050919050565b7f4f6e6c792061737369676e656420776f726b6572000000000000000000000000600082015250565b6000612017601483611558565b915061202282611fe1565b602082019050919050565b600060208201905081810360008301526120468161200a565b9050919050565b600082905092915050565b612062838361204d565b67ffffffffffffffff81111561207b5761207a6116bd565b5b6120858254611b3c565b612090828285611c8c565b6000601f8311600181146120bf57600084156120ad578287013590505b6120b78582611cfd565b86555061211f565b601f1984166120cd86611b6d565b60005b828110156120f5578489013582556001820191506020850194506020810190506120d0565b86831015612112578489013561210e601f891682611cdf565b8355505b6001600288020188555050505b50505050505050565b60006121348385611558565b9350612141838584611769565b61214a83611593565b840190509392505050565b60006020820190508181036000830152612170818486612128565b90509392505050565b7f4f6e6c79206f776e657200000000000000000000000000000000000000000000600082015250565b60006121af600a83611558565b91506121ba82612179565b602082019050919050565b600060208201905081810360008301526121de816121a2565b9050919050565b7f5461736b206e6f74207375626d69747465640000000000000000000000000000600082015250565b600061221b601283611558565b9150612226826121e5565b602082019050919050565b6000602082019050818103600083015261224a8161220e565b9050919050565b7f4e6f20776f726b65722061737369676e65640000000000000000000000000000600082015250565b6000612287601283611558565b915061229282612251565b602082019050919050565b600060208201905081810360008301526122b68161227a565b9050919050565b7f5061796f7574206661696c656400000000000000000000000000000000000000600082015250565b60006122f3600d83611558565b91506122fe826122bd565b602082019050919050565b60006020820190508181036000830152612322816122e6565b9050919050565b7f496e76616c696420616464726573730000000000000000000000000000000000600082015250565b600061235f600f83611558565b915061236a82612329565b602082019050919050565b6000602082019050818103600083015261238e81612352565b905091905056fea26469706673582212208985b0b0317423323a0e67d6f22102b416b6cbf01c0e80b794986d57d1f3d18964736f6c63430008140033",
  "linkReferences": {},
  "deployedLinkReferences": {}
}